{
  "_format": "hh-sol-artifact-1",
  "contractName": "CollateralizedBorrowing",
  "sourceName": "contracts/CollateralizedBorrowing.sol",
  "abi": [
    {
      "inputs": [
        {
          "internalType": "uint256",
          "name": "_collateralRatio",
          "type": "uint256"
        }
      ],
      "stateMutability": "nonpayable",
      "type": "constructor"
    },
    {
      "anonymous": false,
      "inputs": [
        {
          "indexed": true,
          "internalType": "address",
          "name": "borrower",
          "type": "address"
        },
        {
          "indexed": false,
          "internalType": "uint256",
          "name": "amount",
          "type": "uint256"
        }
      ],
      "name": "Borrow",
      "type": "event"
    },
    {
      "anonymous": false,
      "inputs": [
        {
          "indexed": true,
          "internalType": "address",
          "name": "borrower",
          "type": "address"
        },
        {
          "indexed": false,
          "internalType": "uint256",
          "name": "amount",
          "type": "uint256"
        }
      ],
      "name": "DepositCollateral",
      "type": "event"
    },
    {
      "anonymous": false,
      "inputs": [
        {
          "indexed": true,
          "internalType": "address",
          "name": "borrower",
          "type": "address"
        },
        {
          "indexed": false,
          "internalType": "uint256",
          "name": "amount",
          "type": "uint256"
        }
      ],
      "name": "Repay",
      "type": "event"
    },
    {
      "anonymous": false,
      "inputs": [
        {
          "indexed": true,
          "internalType": "address",
          "name": "borrower",
          "type": "address"
        },
        {
          "indexed": false,
          "internalType": "uint256",
          "name": "amount",
          "type": "uint256"
        }
      ],
      "name": "WithdrawCollateral",
      "type": "event"
    },
    {
      "inputs": [
        {
          "internalType": "uint256",
          "name": "amount",
          "type": "uint256"
        }
      ],
      "name": "borrow",
      "outputs": [],
      "stateMutability": "nonpayable",
      "type": "function"
    },
    {
      "inputs": [
        {
          "internalType": "address",
          "name": "",
          "type": "address"
        }
      ],
      "name": "collateral",
      "outputs": [
        {
          "internalType": "uint256",
          "name": "",
          "type": "uint256"
        }
      ],
      "stateMutability": "view",
      "type": "function"
    },
    {
      "inputs": [],
      "name": "collateralRatio",
      "outputs": [
        {
          "internalType": "uint256",
          "name": "",
          "type": "uint256"
        }
      ],
      "stateMutability": "view",
      "type": "function"
    },
    {
      "inputs": [
        {
          "internalType": "address",
          "name": "",
          "type": "address"
        }
      ],
      "name": "debt",
      "outputs": [
        {
          "internalType": "uint256",
          "name": "",
          "type": "uint256"
        }
      ],
      "stateMutability": "view",
      "type": "function"
    },
    {
      "inputs": [
        {
          "internalType": "uint256",
          "name": "amount",
          "type": "uint256"
        }
      ],
      "name": "depositCollateral",
      "outputs": [],
      "stateMutability": "payable",
      "type": "function"
    },
    {
      "inputs": [],
      "name": "getCollateralBalance",
      "outputs": [
        {
          "internalType": "uint256",
          "name": "",
          "type": "uint256"
        }
      ],
      "stateMutability": "view",
      "type": "function"
    },
    {
      "inputs": [],
      "name": "getDebt",
      "outputs": [
        {
          "internalType": "uint256",
          "name": "",
          "type": "uint256"
        }
      ],
      "stateMutability": "view",
      "type": "function"
    },
    {
      "inputs": [
        {
          "internalType": "uint256",
          "name": "amount",
          "type": "uint256"
        }
      ],
      "name": "repay",
      "outputs": [],
      "stateMutability": "payable",
      "type": "function"
    },
    {
      "inputs": [
        {
          "internalType": "uint256",
          "name": "amount",
          "type": "uint256"
        }
      ],
      "name": "withdrawCollateral",
      "outputs": [],
      "stateMutability": "nonpayable",
      "type": "function"
    },
    {
      "stateMutability": "payable",
      "type": "receive"
    }
  ],
  "bytecode": "0x60806040523480156200001157600080fd5b50604051620011b4380380620011b48339818101604052810190620000379190620000cb565b600081116200007d576040517f08c379a0000000000000000000000000000000000000000000000000000000008152600401620000749062000184565b60405180910390fd5b8060028190555050620001a6565b600080fd5b6000819050919050565b620000a58162000090565b8114620000b157600080fd5b50565b600081519050620000c5816200009a565b92915050565b600060208284031215620000e457620000e36200008b565b5b6000620000f484828501620000b4565b91505092915050565b600082825260208201905092915050565b7f436f6c6c61746572616c20726174696f206d757374206265206772656174657260008201527f207468616e203000000000000000000000000000000000000000000000000000602082015250565b60006200016c602783620000fd565b915062000179826200010e565b604082019050919050565b600060208201905081810360008301526200019f816200015d565b9050919050565b610ffe80620001b66000396000f3fe60806040526004361061008a5760003560e01c80639b6c56ec116100595780639b6c56ec14610131578063a5fdc5de1461016e578063b4eae1cb146101ab578063bad4a01f146101d6578063c5ebeaec146101f257610091565b806314a6bf0f146100965780631529a639146100c1578063371fd8e6146100ec5780636112fe2e1461010857610091565b3661009157005b600080fd5b3480156100a257600080fd5b506100ab61021b565b6040516100b8919061095c565b60405180910390f35b3480156100cd57600080fd5b506100d6610262565b6040516100e3919061095c565b60405180910390f35b610106600480360381019061010191906109a8565b6102a8565b005b34801561011457600080fd5b5061012f600480360381019061012a91906109a8565b6104a8565b005b34801561013d57600080fd5b5061015860048036038101906101539190610a33565b610659565b604051610165919061095c565b60405180910390f35b34801561017a57600080fd5b5061019560048036038101906101909190610a33565b610671565b6040516101a2919061095c565b60405180910390f35b3480156101b757600080fd5b506101c0610689565b6040516101cd919061095c565b60405180910390f35b6101f060048036038101906101eb91906109a8565b61068f565b005b3480156101fe57600080fd5b50610219600480360381019061021491906109a8565b610778565b005b6000600160003373ffffffffffffffffffffffffffffffffffffffff1673ffffffffffffffffffffffffffffffffffffffff16815260200190815260200160002054905090565b60008060003373ffffffffffffffffffffffffffffffffffffffff1673ffffffffffffffffffffffffffffffffffffffff16815260200190815260200160002054905090565b600081116102eb576040517f08c379a00000000000000000000000000000000000000000000000000000000081526004016102e290610ae3565b60405180910390fd5b600160003373ffffffffffffffffffffffffffffffffffffffff1673ffffffffffffffffffffffffffffffffffffffff1681526020019081526020016000205481111561036d576040517f08c379a000000000000000000000000000000000000000000000000000000000815260040161036490610b4f565b60405180910390fd5b80600160003373ffffffffffffffffffffffffffffffffffffffff1673ffffffffffffffffffffffffffffffffffffffff16815260200190815260200160002060008282546103bc9190610b9e565b9250508190555060003411156104135780341461040e576040517f08c379a000000000000000000000000000000000000000000000000000000000815260040161040590610c44565b60405180910390fd5b610457565b47811115610456576040517f08c379a000000000000000000000000000000000000000000000000000000000815260040161044d90610cb0565b60405180910390fd5b5b3373ffffffffffffffffffffffffffffffffffffffff167f5c16de4f8b59bd9caf0f49a545f25819a895ed223294290b408242e72a5942318260405161049d919061095c565b60405180910390a250565b600081116104eb576040517f08c379a00000000000000000000000000000000000000000000000000000000081526004016104e290610d42565b60405180910390fd5b6000803373ffffffffffffffffffffffffffffffffffffffff1673ffffffffffffffffffffffffffffffffffffffff1681526020019081526020016000205481101561056c576040517f08c379a000000000000000000000000000000000000000000000000000000000815260040161056390610dae565b60405180910390fd5b806000803373ffffffffffffffffffffffffffffffffffffffff1673ffffffffffffffffffffffffffffffffffffffff16815260200190815260200160002060008282546105ba9190610b9e565b925050819055503373ffffffffffffffffffffffffffffffffffffffff166108fc829081150290604051600060405180830381858888f19350505050158015610607573d6000803e3d6000fd5b503373ffffffffffffffffffffffffffffffffffffffff167fa8e76b822fc682be77f3b1c822ea81f6bda5aed92ba82e6873bfd889f328d1d28260405161064e919061095c565b60405180910390a250565b60016020528060005260406000206000915090505481565b60006020528060005260406000206000915090505481565b60025481565b600081116106d2576040517f08c379a00000000000000000000000000000000000000000000000000000000081526004016106c990610e40565b60405180910390fd5b806000803373ffffffffffffffffffffffffffffffffffffffff1673ffffffffffffffffffffffffffffffffffffffff16815260200190815260200160002060008282546107209190610e60565b925050819055503373ffffffffffffffffffffffffffffffffffffffff167f8c66c9368f6312eb21bf56acbd3a20448f7d1589d024c30482c3d0a33125523e8260405161076d919061095c565b60405180910390a250565b600081116107bb576040517f08c379a00000000000000000000000000000000000000000000000000000000081526004016107b290610f06565b60405180910390fd5b6064600254826107cb9190610f26565b6107d59190610f97565b6000803373ffffffffffffffffffffffffffffffffffffffff1673ffffffffffffffffffffffffffffffffffffffff168152602001908152602001600020541015610855576040517f08c379a000000000000000000000000000000000000000000000000000000000815260040161084c90610dae565b60405180910390fd5b80600160003373ffffffffffffffffffffffffffffffffffffffff1673ffffffffffffffffffffffffffffffffffffffff16815260200190815260200160002060008282546108a49190610e60565b925050819055503373ffffffffffffffffffffffffffffffffffffffff166108fc829081150290604051600060405180830381858888f193505050501580156108f1573d6000803e3d6000fd5b503373ffffffffffffffffffffffffffffffffffffffff167fcbc04eca7e9da35cb1393a6135a199ca52e450d5e9251cbd99f7847d33a3675082604051610938919061095c565b60405180910390a250565b6000819050919050565b61095681610943565b82525050565b6000602082019050610971600083018461094d565b92915050565b600080fd5b61098581610943565b811461099057600080fd5b50565b6000813590506109a28161097c565b92915050565b6000602082840312156109be576109bd610977565b5b60006109cc84828501610993565b91505092915050565b600073ffffffffffffffffffffffffffffffffffffffff82169050919050565b6000610a00826109d5565b9050919050565b610a10816109f5565b8114610a1b57600080fd5b50565b600081359050610a2d81610a07565b92915050565b600060208284031215610a4957610a48610977565b5b6000610a5784828501610a1e565b91505092915050565b600082825260208201905092915050565b7f526570617920616d6f756e74206d75737420626520677265617465722074686160008201527f6e20300000000000000000000000000000000000000000000000000000000000602082015250565b6000610acd602383610a60565b9150610ad882610a71565b604082019050919050565b60006020820190508181036000830152610afc81610ac0565b9050919050565b7f43616e6e6f74207265706179206d6f7265207468616e20746865206465627400600082015250565b6000610b39601f83610a60565b9150610b4482610b03565b602082019050919050565b60006020820190508181036000830152610b6881610b2c565b9050919050565b7f4e487b7100000000000000000000000000000000000000000000000000000000600052601160045260246000fd5b6000610ba982610943565b9150610bb483610943565b9250828203905081811115610bcc57610bcb610b6f565b5b92915050565b7f53656e7420455448206d757374206d61746368207468652072657061796d656e60008201527f7420616d6f756e74000000000000000000000000000000000000000000000000602082015250565b6000610c2e602883610a60565b9150610c3982610bd2565b604082019050919050565b60006020820190508181036000830152610c5d81610c21565b9050919050565b7f496e73756666696369656e7420636f6e74726163742062616c616e6365000000600082015250565b6000610c9a601d83610a60565b9150610ca582610c64565b602082019050919050565b60006020820190508181036000830152610cc981610c8d565b9050919050565b7f5769746864726177616c20616d6f756e74206d7573742062652067726561746560008201527f72207468616e2030000000000000000000000000000000000000000000000000602082015250565b6000610d2c602883610a60565b9150610d3782610cd0565b604082019050919050565b60006020820190508181036000830152610d5b81610d1f565b9050919050565b7f496e73756666696369656e7420636f6c6c61746572616c000000000000000000600082015250565b6000610d98601783610a60565b9150610da382610d62565b602082019050919050565b60006020820190508181036000830152610dc781610d8b565b9050919050565b7f436f6c6c61746572616c20616d6f756e74206d7573742062652067726561746560008201527f72207468616e2030000000000000000000000000000000000000000000000000602082015250565b6000610e2a602883610a60565b9150610e3582610dce565b604082019050919050565b60006020820190508181036000830152610e5981610e1d565b9050919050565b6000610e6b82610943565b9150610e7683610943565b9250828201905080821115610e8e57610e8d610b6f565b5b92915050565b7f426f72726f7720616d6f756e74206d757374206265206772656174657220746860008201527f616e203000000000000000000000000000000000000000000000000000000000602082015250565b6000610ef0602483610a60565b9150610efb82610e94565b604082019050919050565b60006020820190508181036000830152610f1f81610ee3565b9050919050565b6000610f3182610943565b9150610f3c83610943565b9250828202610f4a81610943565b91508282048414831517610f6157610f60610b6f565b5b5092915050565b7f4e487b7100000000000000000000000000000000000000000000000000000000600052601260045260246000fd5b6000610fa282610943565b9150610fad83610943565b925082610fbd57610fbc610f68565b5b82820490509291505056fea2646970667358221220986daca04a548c4fede0c1cfe8bb762913ea5235abedaee831613d2819218b1864736f6c63430008120033",
  "linkReferences": {},
  "deployedLinkReferences": {}
}