{
  "_format": "hh-sol-artifact-1",
  "contractName": "Escrow",
  "sourceName": "contracts/Escrow.sol",
  "abi": [
    {
      "inputs": [
        {
          "internalType": "address",
          "name": "_nftAddress",
          "type": "address"
        },
        {
          "internalType": "address payable",
          "name": "_seller",
          "type": "address"
        },
        {
          "internalType": "address payable",
          "name": "_inspector",
          "type": "address"
        },
        {
          "internalType": "address",
          "name": "_lender",
          "type": "address"
        }
      ],
      "stateMutability": "nonpayable",
      "type": "constructor"
    },
    {
      "inputs": [
        {
          "internalType": "uint256",
          "name": "",
          "type": "uint256"
        },
        {
          "internalType": "address",
          "name": "",
          "type": "address"
        }
      ],
      "name": "approval",
      "outputs": [
        {
          "internalType": "bool",
          "name": "",
          "type": "bool"
        }
      ],
      "stateMutability": "view",
      "type": "function"
    },
    {
      "inputs": [
        {
          "internalType": "uint256",
          "name": "_nftId",
          "type": "uint256"
        }
      ],
      "name": "approveSale",
      "outputs": [],
      "stateMutability": "nonpayable",
      "type": "function"
    },
    {
      "inputs": [
        {
          "internalType": "uint256",
          "name": "",
          "type": "uint256"
        }
      ],
      "name": "buyer",
      "outputs": [
        {
          "internalType": "address",
          "name": "",
          "type": "address"
        }
      ],
      "stateMutability": "view",
      "type": "function"
    },
    {
      "inputs": [
        {
          "internalType": "uint256",
          "name": "_nftId",
          "type": "uint256"
        }
      ],
      "name": "cancelSale",
      "outputs": [],
      "stateMutability": "nonpayable",
      "type": "function"
    },
    {
      "inputs": [
        {
          "internalType": "uint256",
          "name": "_nftId",
          "type": "uint256"
        }
      ],
      "name": "depositEarnest",
      "outputs": [],
      "stateMutability": "payable",
      "type": "function"
    },
    {
      "inputs": [
        {
          "internalType": "uint256",
          "name": "",
          "type": "uint256"
        }
      ],
      "name": "escrowAmount",
      "outputs": [
        {
          "internalType": "uint256",
          "name": "",
          "type": "uint256"
        }
      ],
      "stateMutability": "view",
      "type": "function"
    },
    {
      "inputs": [
        {
          "internalType": "uint256",
          "name": "_nftId",
          "type": "uint256"
        }
      ],
      "name": "finalizePayment",
      "outputs": [],
      "stateMutability": "payable",
      "type": "function"
    },
    {
      "inputs": [
        {
          "internalType": "uint256",
          "name": "_nftId",
          "type": "uint256"
        }
      ],
      "name": "finalizeSale",
      "outputs": [],
      "stateMutability": "nonpayable",
      "type": "function"
    },
    {
      "inputs": [],
      "name": "getBalance",
      "outputs": [
        {
          "internalType": "uint256",
          "name": "",
          "type": "uint256"
        }
      ],
      "stateMutability": "view",
      "type": "function"
    },
    {
      "inputs": [
        {
          "internalType": "uint256",
          "name": "",
          "type": "uint256"
        }
      ],
      "name": "inspectionPassed",
      "outputs": [
        {
          "internalType": "bool",
          "name": "",
          "type": "bool"
        }
      ],
      "stateMutability": "view",
      "type": "function"
    },
    {
      "inputs": [
        {
          "internalType": "uint256",
          "name": "",
          "type": "uint256"
        }
      ],
      "name": "inspectionPrice",
      "outputs": [
        {
          "internalType": "uint256",
          "name": "",
          "type": "uint256"
        }
      ],
      "stateMutability": "view",
      "type": "function"
    },
    {
      "inputs": [],
      "name": "inspector",
      "outputs": [
        {
          "internalType": "address payable",
          "name": "",
          "type": "address"
        }
      ],
      "stateMutability": "view",
      "type": "function"
    },
    {
      "inputs": [
        {
          "internalType": "uint256",
          "name": "",
          "type": "uint256"
        }
      ],
      "name": "isListed",
      "outputs": [
        {
          "internalType": "bool",
          "name": "",
          "type": "bool"
        }
      ],
      "stateMutability": "view",
      "type": "function"
    },
    {
      "inputs": [
        {
          "internalType": "address",
          "name": "",
          "type": "address"
        }
      ],
      "name": "isPayed",
      "outputs": [
        {
          "internalType": "bool",
          "name": "",
          "type": "bool"
        }
      ],
      "stateMutability": "view",
      "type": "function"
    },
    {
      "inputs": [],
      "name": "lender",
      "outputs": [
        {
          "internalType": "address",
          "name": "",
          "type": "address"
        }
      ],
      "stateMutability": "view",
      "type": "function"
    },
    {
      "inputs": [
        {
          "internalType": "uint256",
          "name": "_nftId",
          "type": "uint256"
        },
        {
          "internalType": "address",
          "name": "_buyer",
          "type": "address"
        },
        {
          "internalType": "uint256",
          "name": "_purchasePrice",
          "type": "uint256"
        },
        {
          "internalType": "uint256",
          "name": "_escrowAmount",
          "type": "uint256"
        },
        {
          "internalType": "uint256",
          "name": "_inspectionPrice",
          "type": "uint256"
        }
      ],
      "name": "listProperty",
      "outputs": [],
      "stateMutability": "payable",
      "type": "function"
    },
    {
      "inputs": [],
      "name": "nftAddress",
      "outputs": [
        {
          "internalType": "address",
          "name": "",
          "type": "address"
        }
      ],
      "stateMutability": "view",
      "type": "function"
    },
    {
      "inputs": [],
      "name": "paySeller",
      "outputs": [],
      "stateMutability": "nonpayable",
      "type": "function"
    },
    {
      "inputs": [
        {
          "internalType": "uint256",
          "name": "_nftId",
          "type": "uint256"
        },
        {
          "internalType": "bool",
          "name": "_passed",
          "type": "bool"
        }
      ],
      "name": "propertyInspection",
      "outputs": [],
      "stateMutability": "nonpayable",
      "type": "function"
    },
    {
      "inputs": [
        {
          "internalType": "uint256",
          "name": "",
          "type": "uint256"
        }
      ],
      "name": "purchasePrice",
      "outputs": [
        {
          "internalType": "uint256",
          "name": "",
          "type": "uint256"
        }
      ],
      "stateMutability": "view",
      "type": "function"
    },
    {
      "inputs": [],
      "name": "seller",
      "outputs": [
        {
          "internalType": "address payable",
          "name": "",
          "type": "address"
        }
      ],
      "stateMutability": "view",
      "type": "function"
    },
    {
      "stateMutability": "payable",
      "type": "receive"
    }
  ],
  "bytecode": "0x60806040523480156200001157600080fd5b5060405162001e1838038062001e188339818101604052810190620000379190620001f3565b836000806101000a81548173ffffffffffffffffffffffffffffffffffffffff021916908373ffffffffffffffffffffffffffffffffffffffff16021790555082600160006101000a81548173ffffffffffffffffffffffffffffffffffffffff021916908373ffffffffffffffffffffffffffffffffffffffff16021790555081600260006101000a81548173ffffffffffffffffffffffffffffffffffffffff021916908373ffffffffffffffffffffffffffffffffffffffff16021790555080600360006101000a81548173ffffffffffffffffffffffffffffffffffffffff021916908373ffffffffffffffffffffffffffffffffffffffff1602179055505050505062000265565b600080fd5b600073ffffffffffffffffffffffffffffffffffffffff82169050919050565b6000620001768262000149565b9050919050565b620001888162000169565b81146200019457600080fd5b50565b600081519050620001a8816200017d565b92915050565b6000620001bb8262000149565b9050919050565b620001cd81620001ae565b8114620001d957600080fd5b50565b600081519050620001ed81620001c2565b92915050565b6000806000806080858703121562000210576200020f62000144565b5b6000620002208782880162000197565b94505060206200023387828801620001dc565b93505060406200024687828801620001dc565b9250506060620002598782880162000197565b91505092959194509250565b611ba380620002756000396000f3fe60806040526004361061012e5760003560e01c806377fbc4ae116100ab578063bcead63e1161006f578063bcead63e146103f3578063bd94b0051461041e578063dded800814610447578063e740f77014610484578063ed2cee9e146104a0578063fcce4883146104cb57610135565b806377fbc4ae1461031d5780638b970a5e1461035a578063a0c97bce14610376578063aa9293801461038d578063b848de35146103b657610135565b80634dd4acaf116100f25780634dd4acaf1461021f5780635bf8633a1461025c5780635d19e56c146102875780635eed5fff146102c4578063696588061461030157610135565b806308551a531461013a57806312065fe01461016557806314a72feb146101905780632bc1c730146101b957806335b6eaea146101e257610135565b3661013557005b600080fd5b34801561014657600080fd5b5061014f610508565b60405161015c9190611307565b60405180910390f35b34801561017157600080fd5b5061017a61052e565b604051610187919061133b565b60405180910390f35b34801561019c57600080fd5b506101b760048036038101906101b29190611387565b610536565b005b3480156101c557600080fd5b506101e060048036038101906101db91906113ec565b6105a2565b005b3480156101ee57600080fd5b506102096004803603810190610204919061146a565b610661565b60405161021691906114a6565b60405180910390f35b34801561022b57600080fd5b5061024660048036038101906102419190611387565b610681565b60405161025391906114d0565b60405180910390f35b34801561026857600080fd5b506102716106b4565b60405161027e91906114d0565b60405180910390f35b34801561029357600080fd5b506102ae60048036038101906102a99190611387565b6106d8565b6040516102bb919061133b565b60405180910390f35b3480156102d057600080fd5b506102eb60048036038101906102e69190611387565b6106f0565b6040516102f891906114a6565b60405180910390f35b61031b60048036038101906103169190611387565b610710565b005b34801561032957600080fd5b50610344600480360381019061033f9190611387565b610817565b604051610351919061133b565b60405180910390f35b610374600480360381019061036f91906114eb565b61082f565b005b34801561038257600080fd5b5061038b610a1b565b005b34801561039957600080fd5b506103b460048036038101906103af9190611387565b610b00565b005b3480156103c257600080fd5b506103dd60048036038101906103d89190611566565b610f75565b6040516103ea91906114a6565b60405180910390f35b3480156103ff57600080fd5b50610408610fa4565b60405161041591906114d0565b60405180910390f35b34801561042a57600080fd5b5061044560048036038101906104409190611387565b610fca565b005b34801561045357600080fd5b5061046e60048036038101906104699190611387565b6111a2565b60405161047b919061133b565b60405180910390f35b61049e60048036038101906104999190611387565b6111ba565b005b3480156104ac57600080fd5b506104b5611280565b6040516104c29190611307565b60405180910390f35b3480156104d757600080fd5b506104f260048036038101906104ed9190611387565b6112a6565b6040516104ff91906114a6565b60405180910390f35b600160009054906101000a900473ffffffffffffffffffffffffffffffffffffffff1681565b600047905090565b6001600a600083815260200190815260200160002060003373ffffffffffffffffffffffffffffffffffffffff1673ffffffffffffffffffffffffffffffffffffffff16815260200190815260200160002060006101000a81548160ff02191690831515021790555050565b600260009054906101000a900473ffffffffffffffffffffffffffffffffffffffff1673ffffffffffffffffffffffffffffffffffffffff163373ffffffffffffffffffffffffffffffffffffffff1614610632576040517f08c379a000000000000000000000000000000000000000000000000000000000815260040161062990611629565b60405180910390fd5b806009600084815260200190815260200160002060006101000a81548160ff0219169083151502179055505050565b600b6020528060005260406000206000915054906101000a900460ff1681565b60086020528060005260406000206000915054906101000a900473ffffffffffffffffffffffffffffffffffffffff1681565b60008054906101000a900473ffffffffffffffffffffffffffffffffffffffff1681565b60066020528060005260406000206000915090505481565b60096020528060005260406000206000915054906101000a900460ff1681565b600360009054906101000a900473ffffffffffffffffffffffffffffffffffffffff1673ffffffffffffffffffffffffffffffffffffffff163373ffffffffffffffffffffffffffffffffffffffff16146107a0576040517f08c379a0000000000000000000000000000000000000000000000000000000008152600401610797906116bb565b60405180910390fd5b600660008281526020019081526020016000205460056000838152602001908152602001600020546107d2919061170a565b341015610814576040517f08c379a000000000000000000000000000000000000000000000000000000000815260040161080b906117b0565b60405180910390fd5b50565b60056020528060005260406000206000915090505481565b600160009054906101000a900473ffffffffffffffffffffffffffffffffffffffff1673ffffffffffffffffffffffffffffffffffffffff163373ffffffffffffffffffffffffffffffffffffffff16146108bf576040517f08c379a00000000000000000000000000000000000000000000000000000000081526004016108b690611842565b60405180910390fd5b60008054906101000a900473ffffffffffffffffffffffffffffffffffffffff1673ffffffffffffffffffffffffffffffffffffffff166323b872dd3330886040518463ffffffff1660e01b815260040161091c93929190611862565b600060405180830381600087803b15801561093657600080fd5b505af115801561094a573d6000803e3d6000fd5b5050505060016004600087815260200190815260200160002060006101000a81548160ff021916908315150217905550826005600087815260200190815260200160002081905550816006600087815260200190815260200160002081905550806007600087815260200190815260200160002081905550836008600087815260200190815260200160002060006101000a81548173ffffffffffffffffffffffffffffffffffffffff021916908373ffffffffffffffffffffffffffffffffffffffff1602179055505050505050565b600160009054906101000a900473ffffffffffffffffffffffffffffffffffffffff1673ffffffffffffffffffffffffffffffffffffffff166108fc479081150290604051600060405180830381858888f19350505050158015610a83573d6000803e3d6000fd5b506001600b6000600160009054906101000a900473ffffffffffffffffffffffffffffffffffffffff1673ffffffffffffffffffffffffffffffffffffffff1673ffffffffffffffffffffffffffffffffffffffff16815260200190815260200160002060006101000a81548160ff021916908315150217905550565b6009600082815260200190815260200160002060009054906101000a900460ff16610b60576040517f08c379a0000000000000000000000000000000000000000000000000000000008152600401610b57906118e5565b60405180910390fd5b600a60008281526020019081526020016000206000600360009054906101000a900473ffffffffffffffffffffffffffffffffffffffff1673ffffffffffffffffffffffffffffffffffffffff1673ffffffffffffffffffffffffffffffffffffffff16815260200190815260200160002060009054906101000a900460ff16610be957600080fd5b600a600082815260200190815260200160002060006008600084815260200190815260200160002060009054906101000a900473ffffffffffffffffffffffffffffffffffffffff1673ffffffffffffffffffffffffffffffffffffffff1673ffffffffffffffffffffffffffffffffffffffff16815260200190815260200160002060009054906101000a900460ff16610cb9576040517f08c379a0000000000000000000000000000000000000000000000000000000008152600401610cb090611951565b60405180910390fd5b600a60008281526020019081526020016000206000600160009054906101000a900473ffffffffffffffffffffffffffffffffffffffff1673ffffffffffffffffffffffffffffffffffffffff1673ffffffffffffffffffffffffffffffffffffffff16815260200190815260200160002060009054906101000a900460ff16610d78576040517f08c379a0000000000000000000000000000000000000000000000000000000008152600401610d6f906119bd565b60405180910390fd5b6005600082815260200190815260200160002054471015610dce576040517f08c379a0000000000000000000000000000000000000000000000000000000008152600401610dc590611a4f565b60405180910390fd5b60006004600083815260200190815260200160002060006101000a81548160ff021916908315150217905550610e02610a1b565b600b6000600160009054906101000a900473ffffffffffffffffffffffffffffffffffffffff1673ffffffffffffffffffffffffffffffffffffffff1673ffffffffffffffffffffffffffffffffffffffff16815260200190815260200160002060009054906101000a900460ff16610eb0576040517f08c379a0000000000000000000000000000000000000000000000000000000008152600401610ea790611abb565b60405180910390fd5b60008054906101000a900473ffffffffffffffffffffffffffffffffffffffff1673ffffffffffffffffffffffffffffffffffffffff166323b872dd306008600085815260200190815260200160002060009054906101000a900473ffffffffffffffffffffffffffffffffffffffff16846040518463ffffffff1660e01b8152600401610f4093929190611862565b600060405180830381600087803b158015610f5a57600080fd5b505af1158015610f6e573d6000803e3d6000fd5b5050505050565b600a6020528160005260406000206020528060005260406000206000915091509054906101000a900460ff1681565b600360009054906101000a900473ffffffffffffffffffffffffffffffffffffffff1681565b600015156009600083815260200190815260200160002060009054906101000a900460ff1615151480611091575060001515600a600083815260200190815260200160002060006008600085815260200190815260200160002060009054906101000a900473ffffffffffffffffffffffffffffffffffffffff1673ffffffffffffffffffffffffffffffffffffffff1673ffffffffffffffffffffffffffffffffffffffff16815260200190815260200160002060009054906101000a900460ff161515145b8061111f575060001515600a60008381526020019081526020016000206000600160009054906101000a900473ffffffffffffffffffffffffffffffffffffffff1673ffffffffffffffffffffffffffffffffffffffff1673ffffffffffffffffffffffffffffffffffffffff16815260200190815260200160002060009054906101000a900460ff161515145b1561119f576008600082815260200190815260200160002060009054906101000a900473ffffffffffffffffffffffffffffffffffffffff1673ffffffffffffffffffffffffffffffffffffffff166108fc479081150290604051600060405180830381858888f1935050505015801561119d573d6000803e3d6000fd5b505b50565b60076020528060005260406000206000915090505481565b806008600082815260200190815260200160002060009054906101000a900473ffffffffffffffffffffffffffffffffffffffff1673ffffffffffffffffffffffffffffffffffffffff163373ffffffffffffffffffffffffffffffffffffffff161461125c576040517f08c379a000000000000000000000000000000000000000000000000000000000815260040161125390611b4d565b60405180910390fd5b600660008381526020019081526020016000205434101561127c57600080fd5b5050565b600260009054906101000a900473ffffffffffffffffffffffffffffffffffffffff1681565b60046020528060005260406000206000915054906101000a900460ff1681565b600073ffffffffffffffffffffffffffffffffffffffff82169050919050565b60006112f1826112c6565b9050919050565b611301816112e6565b82525050565b600060208201905061131c60008301846112f8565b92915050565b6000819050919050565b61133581611322565b82525050565b6000602082019050611350600083018461132c565b92915050565b600080fd5b61136481611322565b811461136f57600080fd5b50565b6000813590506113818161135b565b92915050565b60006020828403121561139d5761139c611356565b5b60006113ab84828501611372565b91505092915050565b60008115159050919050565b6113c9816113b4565b81146113d457600080fd5b50565b6000813590506113e6816113c0565b92915050565b6000806040838503121561140357611402611356565b5b600061141185828601611372565b9250506020611422858286016113d7565b9150509250929050565b6000611437826112c6565b9050919050565b6114478161142c565b811461145257600080fd5b50565b6000813590506114648161143e565b92915050565b6000602082840312156114805761147f611356565b5b600061148e84828501611455565b91505092915050565b6114a0816113b4565b82525050565b60006020820190506114bb6000830184611497565b92915050565b6114ca8161142c565b82525050565b60006020820190506114e560008301846114c1565b92915050565b600080600080600060a0868803121561150757611506611356565b5b600061151588828901611372565b955050602061152688828901611455565b945050604061153788828901611372565b935050606061154888828901611372565b925050608061155988828901611372565b9150509295509295909350565b6000806040838503121561157d5761157c611356565b5b600061158b85828601611372565b925050602061159c85828601611455565b9150509250929050565b600082825260208201905092915050565b7f4f6e6c7920696e73706563746f722063616e2063616c6c20746869732066756e60008201527f6374696f6e210000000000000000000000000000000000000000000000000000602082015250565b60006116136026836115a6565b915061161e826115b7565b604082019050919050565b6000602082019050818103600083015261164281611606565b9050919050565b7f4f6e6c79206c656e6465722063616e2063616c6c20746869732066756e63746960008201527f6f6e210000000000000000000000000000000000000000000000000000000000602082015250565b60006116a56023836115a6565b91506116b082611649565b604082019050919050565b600060208201905081810360008301526116d481611698565b9050919050565b7f4e487b7100000000000000000000000000000000000000000000000000000000600052601160045260246000fd5b600061171582611322565b915061172083611322565b9250828203905081811115611738576117376116db565b5b92915050565b7f496e737566666963656e7420616d6f756e7420746f2066696e616c697a65207460008201527f6865207061796d656e7421000000000000000000000000000000000000000000602082015250565b600061179a602b836115a6565b91506117a58261173e565b604082019050919050565b600060208201905081810360008301526117c98161178d565b9050919050565b7f4f6e6c792073656c6c65722063616e2063616c6c20746869732066756e63746960008201527f6f6e210000000000000000000000000000000000000000000000000000000000602082015250565b600061182c6023836115a6565b9150611837826117d0565b604082019050919050565b6000602082019050818103600083015261185b8161181f565b9050919050565b600060608201905061187760008301866114c1565b61188460208301856114c1565b611891604083018461132c565b949350505050565b7f50726f706572747920696e7370656374696f6e206e6f74207061737365642100600082015250565b60006118cf601f836115a6565b91506118da82611899565b602082019050919050565b600060208201905081810360008301526118fe816118c2565b9050919050565b7f427579657220646964206e6f7420617070726f7665207468652073616c652100600082015250565b600061193b601f836115a6565b915061194682611905565b602082019050919050565b6000602082019050818103600083015261196a8161192e565b9050919050565b7f53656c6c657220646964206e6f7420617070726f7665207468652073616c6521600082015250565b60006119a76020836115a6565b91506119b282611971565b602082019050919050565b600060208201905081810360008301526119d68161199a565b9050919050565b7f4e6f7420656e6f7567682066756e647320746f2070617920746865207075726360008201527f6861736520707269636521000000000000000000000000000000000000000000602082015250565b6000611a39602b836115a6565b9150611a44826119dd565b604082019050919050565b60006020820190508181036000830152611a6881611a2c565b9050919050565b7f53656c6c657220686173206e6f74206265656e20706179656421000000000000600082015250565b6000611aa5601a836115a6565b9150611ab082611a6f565b602082019050919050565b60006020820190508181036000830152611ad481611a98565b9050919050565b7f4f6e6c792062757965722063616e2063616c6c20746869732066756e6374696f60008201527f6e21000000000000000000000000000000000000000000000000000000000000602082015250565b6000611b376022836115a6565b9150611b4282611adb565b604082019050919050565b60006020820190508181036000830152611b6681611b2a565b905091905056fea26469706673582212202ce451c9e1196fba05ff0629ac5238ad54543d33a19b008255e7064156e9c2cf64736f6c63430008120033",
  "linkReferences": {},
  "deployedLinkReferences": {}
}