{
  "_format": "hh-sol-artifact-1",
  "contractName": "FlashLoan",
  "sourceName": "contracts/FlashLoan.sol",
  "abi": [
    {
      "inputs": [
        {
          "internalType": "address",
          "name": "_poolAddress",
          "type": "address"
        }
      ],
      "stateMutability": "nonpayable",
      "type": "constructor"
    },
    {
      "inputs": [],
      "name": "NotEnoughFunds",
      "type": "error"
    },
    {
      "inputs": [],
      "name": "ADDRESSES_PROVIDER",
      "outputs": [
        {
          "internalType": "contract IPoolAddressesProvider",
          "name": "",
          "type": "address"
        }
      ],
      "stateMutability": "view",
      "type": "function"
    },
    {
      "inputs": [],
      "name": "POOL",
      "outputs": [
        {
          "internalType": "contract IPool",
          "name": "",
          "type": "address"
        }
      ],
      "stateMutability": "view",
      "type": "function"
    },
    {
      "inputs": [
        {
          "internalType": "address",
          "name": "asset",
          "type": "address"
        },
        {
          "internalType": "uint256",
          "name": "amount",
          "type": "uint256"
        },
        {
          "internalType": "uint256",
          "name": "premium",
          "type": "uint256"
        },
        {
          "internalType": "address",
          "name": "initiator",
          "type": "address"
        },
        {
          "internalType": "bytes",
          "name": "params",
          "type": "bytes"
        }
      ],
      "name": "executeOperation",
      "outputs": [
        {
          "internalType": "bool",
          "name": "",
          "type": "bool"
        }
      ],
      "stateMutability": "nonpayable",
      "type": "function"
    },
    {
      "inputs": [
        {
          "internalType": "address",
          "name": "_tokenAddress",
          "type": "address"
        }
      ],
      "name": "getBalance",
      "outputs": [
        {
          "internalType": "uint256",
          "name": "",
          "type": "uint256"
        }
      ],
      "stateMutability": "view",
      "type": "function"
    },
    {
      "inputs": [
        {
          "internalType": "address",
          "name": "_token",
          "type": "address"
        },
        {
          "internalType": "uint256",
          "name": "_amount",
          "type": "uint256"
        }
      ],
      "name": "requestFlashLoan",
      "outputs": [],
      "stateMutability": "nonpayable",
      "type": "function"
    },
    {
      "inputs": [
        {
          "internalType": "address",
          "name": "_tokenAddress",
          "type": "address"
        }
      ],
      "name": "withdraw",
      "outputs": [],
      "stateMutability": "nonpayable",
      "type": "function"
    },
    {
      "stateMutability": "payable",
      "type": "receive"
    }
  ],
  "bytecode": "0x60c060405234801561001057600080fd5b5060405162000e8138038062000e81833981810160405281019061003491906101b5565b808073ffffffffffffffffffffffffffffffffffffffff1660808173ffffffffffffffffffffffffffffffffffffffff16815250508073ffffffffffffffffffffffffffffffffffffffff1663026b1d5f6040518163ffffffff1660e01b8152600401602060405180830381865afa1580156100b4573d6000803e3d6000fd5b505050506040513d601f19601f820116820180604052508101906100d891906101b5565b73ffffffffffffffffffffffffffffffffffffffff1660a08173ffffffffffffffffffffffffffffffffffffffff168152505050336000806101000a81548173ffffffffffffffffffffffffffffffffffffffff021916908373ffffffffffffffffffffffffffffffffffffffff160217905550506101e2565b600080fd5b600073ffffffffffffffffffffffffffffffffffffffff82169050919050565b600061018282610157565b9050919050565b61019281610177565b811461019d57600080fd5b50565b6000815190506101af81610189565b92915050565b6000602082840312156101cb576101ca610152565b5b60006101d9848285016101a0565b91505092915050565b60805160a051610c6b6200021660003960008181610292015281816104b401526104fd015260006101890152610c6b6000f3fe6080604052600436106100595760003560e01c80630542975c146100655780631b11d0ff1461009057806351cff8d9146100cd5780637535d246146100f6578063d54ba95414610121578063f8b2cb4f1461014a57610060565b3661006057005b600080fd5b34801561007157600080fd5b5061007a610187565b6040516100879190610699565b60405180910390f35b34801561009c57600080fd5b506100b760048036038101906100b29190610797565b6101ab565b6040516100c4919061084c565b60405180910390f35b3480156100d957600080fd5b506100f460048036038101906100ef9190610867565b610323565b005b34801561010257600080fd5b5061010b6104b2565b60405161011891906108b5565b60405180910390f35b34801561012d57600080fd5b50610148600480360381019061014391906108d0565b6104d6565b005b34801561015657600080fd5b50610171600480360381019061016c9190610867565b610597565b60405161017e919061091f565b60405180910390f35b7f000000000000000000000000000000000000000000000000000000000000000081565b60008085876101ba9190610969565b90506000889050818173ffffffffffffffffffffffffffffffffffffffff166370a08231306040518263ffffffff1660e01b81526004016101fb91906109ac565b602060405180830381865afa158015610218573d6000803e3d6000fd5b505050506040513d601f19601f8201168201806040525081019061023c91906109dc565b1015610274576040517f81b5ad6800000000000000000000000000000000000000000000000000000000815260040160405180910390fd5b8073ffffffffffffffffffffffffffffffffffffffff1663095ea7b37f0000000000000000000000000000000000000000000000000000000000000000846040518363ffffffff1660e01b81526004016102cf929190610a09565b6020604051808303816000875af11580156102ee573d6000803e3d6000fd5b505050506040513d601f19601f820116820180604052508101906103129190610a5e565b506001925050509695505050505050565b60008054906101000a900473ffffffffffffffffffffffffffffffffffffffff1673ffffffffffffffffffffffffffffffffffffffff163373ffffffffffffffffffffffffffffffffffffffff16146103b1576040517f08c379a00000000000000000000000000000000000000000000000000000000081526004016103a890610b0e565b60405180910390fd5b60008190508073ffffffffffffffffffffffffffffffffffffffff1663a9059cbb338373ffffffffffffffffffffffffffffffffffffffff166370a08231306040518263ffffffff1660e01b815260040161040c91906109ac565b602060405180830381865afa158015610429573d6000803e3d6000fd5b505050506040513d601f19601f8201168201806040525081019061044d91906109dc565b6040518363ffffffff1660e01b815260040161046a929190610a09565b6020604051808303816000875af1158015610489573d6000803e3d6000fd5b505050506040513d601f19601f820116820180604052508101906104ad9190610a5e565b505050565b7f000000000000000000000000000000000000000000000000000000000000000081565b600030905060008390506000839050600060405180602001604052806000815250905060007f000000000000000000000000000000000000000000000000000000000000000073ffffffffffffffffffffffffffffffffffffffff166342b0b77c86868686866040518663ffffffff1660e01b815260040161055c959493929190610bdb565b600060405180830381600087803b15801561057657600080fd5b505af115801561058a573d6000803e3d6000fd5b5050505050505050505050565b60008173ffffffffffffffffffffffffffffffffffffffff166370a08231306040518263ffffffff1660e01b81526004016105d291906109ac565b602060405180830381865afa1580156105ef573d6000803e3d6000fd5b505050506040513d601f19601f8201168201806040525081019061061391906109dc565b9050919050565b600073ffffffffffffffffffffffffffffffffffffffff82169050919050565b6000819050919050565b600061065f61065a6106558461061a565b61063a565b61061a565b9050919050565b600061067182610644565b9050919050565b600061068382610666565b9050919050565b61069381610678565b82525050565b60006020820190506106ae600083018461068a565b92915050565b600080fd5b600080fd5b60006106c98261061a565b9050919050565b6106d9816106be565b81146106e457600080fd5b50565b6000813590506106f6816106d0565b92915050565b6000819050919050565b61070f816106fc565b811461071a57600080fd5b50565b60008135905061072c81610706565b92915050565b600080fd5b600080fd5b600080fd5b60008083601f84011261075757610756610732565b5b8235905067ffffffffffffffff81111561077457610773610737565b5b6020830191508360018202830111156107905761078f61073c565b5b9250929050565b60008060008060008060a087890312156107b4576107b36106b4565b5b60006107c289828a016106e7565b96505060206107d389828a0161071d565b95505060406107e489828a0161071d565b94505060606107f589828a016106e7565b935050608087013567ffffffffffffffff811115610816576108156106b9565b5b61082289828a01610741565b92509250509295509295509295565b60008115159050919050565b61084681610831565b82525050565b6000602082019050610861600083018461083d565b92915050565b60006020828403121561087d5761087c6106b4565b5b600061088b848285016106e7565b91505092915050565b600061089f82610666565b9050919050565b6108af81610894565b82525050565b60006020820190506108ca60008301846108a6565b92915050565b600080604083850312156108e7576108e66106b4565b5b60006108f5858286016106e7565b92505060206109068582860161071d565b9150509250929050565b610919816106fc565b82525050565b60006020820190506109346000830184610910565b92915050565b7f4e487b7100000000000000000000000000000000000000000000000000000000600052601160045260246000fd5b6000610974826106fc565b915061097f836106fc565b92508282019050808211156109975761099661093a565b5b92915050565b6109a6816106be565b82525050565b60006020820190506109c1600083018461099d565b92915050565b6000815190506109d681610706565b92915050565b6000602082840312156109f2576109f16106b4565b5b6000610a00848285016109c7565b91505092915050565b6000604082019050610a1e600083018561099d565b610a2b6020830184610910565b9392505050565b610a3b81610831565b8114610a4657600080fd5b50565b600081519050610a5881610a32565b92915050565b600060208284031215610a7457610a736106b4565b5b6000610a8284828501610a49565b91505092915050565b600082825260208201905092915050565b7f4f6e6c792074686520636f6e7472616374206f776e65722063616e642063616c60008201527f6c20746869732066756e6374696f6e0000000000000000000000000000000000602082015250565b6000610af8602f83610a8b565b9150610b0382610a9c565b604082019050919050565b60006020820190508181036000830152610b2781610aeb565b9050919050565b600081519050919050565b600082825260208201905092915050565b60005b83811015610b68578082015181840152602081019050610b4d565b60008484015250505050565b6000601f19601f8301169050919050565b6000610b9082610b2e565b610b9a8185610b39565b9350610baa818560208601610b4a565b610bb381610b74565b840191505092915050565b600061ffff82169050919050565b610bd581610bbe565b82525050565b600060a082019050610bf0600083018861099d565b610bfd602083018761099d565b610c0a6040830186610910565b8181036060830152610c1c8185610b85565b9050610c2b6080830184610bcc565b969550505050505056fea26469706673582212203ae66b59e5a9918317a05459dbb3901861c8e2b90a5b28a9dee65a71ac78c66564736f6c63430008120033",
  "linkReferences": {},
  "deployedLinkReferences": {}
}