{
    "_format": "hh-sol-artifact-1",
    "contractName": "Lending",
    "sourceName": "contracts/Lending.sol",
    "abi": [
        {
            "anonymous": false,
            "inputs": [
                {
                    "indexed": true,
                    "internalType": "address",
                    "name": "accountAddress",
                    "type": "address"
                },
                {
                    "indexed": false,
                    "internalType": "uint256",
                    "name": "amount",
                    "type": "uint256"
                }
            ],
            "name": "Deposit",
            "type": "event"
        },
        {
            "anonymous": false,
            "inputs": [
                {
                    "indexed": true,
                    "internalType": "address",
                    "name": "accountAddress",
                    "type": "address"
                },
                {
                    "indexed": false,
                    "internalType": "uint256",
                    "name": "amount",
                    "type": "uint256"
                }
            ],
            "name": "Withdraw",
            "type": "event"
        },
        {
            "inputs": [
                {
                    "internalType": "uint256",
                    "name": "amount",
                    "type": "uint256"
                }
            ],
            "name": "deposit",
            "outputs": [],
            "stateMutability": "payable",
            "type": "function"
        },
        {
            "inputs": [],
            "name": "getBalance",
            "outputs": [
                {
                    "internalType": "uint256",
                    "name": "",
                    "type": "uint256"
                }
            ],
            "stateMutability": "view",
            "type": "function"
        },
        {
            "inputs": [],
            "name": "getInterestRate",
            "outputs": [
                {
                    "internalType": "uint256",
                    "name": "",
                    "type": "uint256"
                }
            ],
            "stateMutability": "view",
            "type": "function"
        },
        {
            "inputs": [
                {
                    "internalType": "uint256",
                    "name": "amount",
                    "type": "uint256"
                }
            ],
            "name": "withdraw",
            "outputs": [],
            "stateMutability": "nonpayable",
            "type": "function"
        },
        {
            "stateMutability": "payable",
            "type": "receive"
        }
    ],
    "bytecode": "0x6080604052600a600155600c6001546100189190610066565b60025534801561002757600080fd5b50610097565b6000819050919050565b7f4e487b7100000000000000000000000000000000000000000000000000000000600052601260045260246000fd5b60006100718261002d565b915061007c8361002d565b92508261008c5761008b610037565b5b828204905092915050565b6106b2806100a66000396000f3fe6080604052600436106100435760003560e01c806312065fe01461004f5780632e1a7d4d1461007a5780635257b566146100a3578063b6b55f25146100ce5761004a565b3661004a57005b600080fd5b34801561005b57600080fd5b506100646100ea565b604051610071919061044d565b60405180910390f35b34801561008657600080fd5b506100a1600480360381019061009c9190610499565b6101d7565b005b3480156100af57600080fd5b506100b861032f565b6040516100c5919061044d565b60405180910390f35b6100e860048036038101906100e39190610499565b610339565b005b6000806000803373ffffffffffffffffffffffffffffffffffffffff1673ffffffffffffffffffffffffffffffffffffffff1681526020019081526020016000209050600062278d0082600101544261014391906104f5565b61014d9190610558565b9050600060646002548385600001546101669190610589565b6101709190610589565b61017a9190610558565b90506000816000803373ffffffffffffffffffffffffffffffffffffffff1673ffffffffffffffffffffffffffffffffffffffff168152602001908152602001600020600001546101cb91906105cb565b90508094505050505090565b60008060003373ffffffffffffffffffffffffffffffffffffffff1673ffffffffffffffffffffffffffffffffffffffff1681526020019081526020016000209050600062278d0082600101544261022f91906104f5565b6102399190610558565b9050600060646002548385600001546102529190610589565b61025c9190610589565b6102669190610558565b90506000818561027691906105cb565b90508484600001600082825461028c91906104f5565b925050819055503373ffffffffffffffffffffffffffffffffffffffff166108fc829081150290604051600060405180830381858888f193505050501580156102d9573d6000803e3d6000fd5b503373ffffffffffffffffffffffffffffffffffffffff167f884edad9ce6fa2440d8a54cc123490eb96d2768479d49ff9c7366125a942436482604051610320919061044d565b60405180910390a25050505050565b6000600154905090565b6000811161037c576040517f08c379a00000000000000000000000000000000000000000000000000000000081526004016103739061065c565b60405180910390fd5b60008060003373ffffffffffffffffffffffffffffffffffffffff1673ffffffffffffffffffffffffffffffffffffffff1681526020019081526020016000209050818160000160008282546103d291906105cb565b925050819055504281600101819055503373ffffffffffffffffffffffffffffffffffffffff167fe1fffcc4923d04b559f4d29a8bfc6cda04eb5b0d3c460751c2402c5c5cc9109c83604051610428919061044d565b60405180910390a25050565b6000819050919050565b61044781610434565b82525050565b6000602082019050610462600083018461043e565b92915050565b600080fd5b61047681610434565b811461048157600080fd5b50565b6000813590506104938161046d565b92915050565b6000602082840312156104af576104ae610468565b5b60006104bd84828501610484565b91505092915050565b7f4e487b7100000000000000000000000000000000000000000000000000000000600052601160045260246000fd5b600061050082610434565b915061050b83610434565b9250828203905081811115610523576105226104c6565b5b92915050565b7f4e487b7100000000000000000000000000000000000000000000000000000000600052601260045260246000fd5b600061056382610434565b915061056e83610434565b92508261057e5761057d610529565b5b828204905092915050565b600061059482610434565b915061059f83610434565b92508282026105ad81610434565b915082820484148315176105c4576105c36104c6565b5b5092915050565b60006105d682610434565b91506105e183610434565b92508282019050808211156105f9576105f86104c6565b5b92915050565b600082825260208201905092915050565b7f416d6f756e74206d7573742062652067726561746572207468616e207a65726f600082015250565b60006106466020836105ff565b915061065182610610565b602082019050919050565b6000602082019050818103600083015261067581610639565b905091905056fea264697066735822122024966255e730ee7442a1c37e8b7a48e2f60c3878218fad5511274110cd62652964736f6c63430008120033",
    "linkReferences": {},
    "deployedLinkReferences": {}
}