{
  "_format": "hh-sol-artifact-1",
  "contractName": "SimpleLending",
  "sourceName": "contracts/SimpleLending.sol",
  "abi": [
    {
      "inputs": [],
      "stateMutability": "nonpayable",
      "type": "constructor"
    },
    {
      "inputs": [
        {
          "internalType": "address",
          "name": "_tokenAddress",
          "type": "address"
        }
      ],
      "name": "allowance",
      "outputs": [
        {
          "internalType": "uint256",
          "name": "",
          "type": "uint256"
        }
      ],
      "stateMutability": "view",
      "type": "function"
    },
    {
      "inputs": [
        {
          "internalType": "uint256",
          "name": "_amount",
          "type": "uint256"
        },
        {
          "internalType": "address",
          "name": "_tokenAddress",
          "type": "address"
        }
      ],
      "name": "approval",
      "outputs": [
        {
          "internalType": "bool",
          "name": "",
          "type": "bool"
        }
      ],
      "stateMutability": "nonpayable",
      "type": "function"
    },
    {
      "inputs": [
        {
          "internalType": "uint256",
          "name": "_amount",
          "type": "uint256"
        },
        {
          "internalType": "address",
          "name": "_tokenAddress",
          "type": "address"
        }
      ],
      "name": "deposit",
      "outputs": [],
      "stateMutability": "nonpayable",
      "type": "function"
    },
    {
      "inputs": [
        {
          "internalType": "address",
          "name": "_tokenAddress",
          "type": "address"
        }
      ],
      "name": "getBalance",
      "outputs": [
        {
          "internalType": "uint256",
          "name": "",
          "type": "uint256"
        }
      ],
      "stateMutability": "view",
      "type": "function"
    },
    {
      "inputs": [
        {
          "internalType": "address",
          "name": "_tokenAddress",
          "type": "address"
        },
        {
          "internalType": "uint256",
          "name": "_amount",
          "type": "uint256"
        }
      ],
      "name": "withdraw",
      "outputs": [],
      "stateMutability": "payable",
      "type": "function"
    },
    {
      "stateMutability": "payable",
      "type": "receive"
    }
  ],
  "bytecode": "0x60a060405273e7ec1b0015eb2adeedb1b7f9f1ce82f9dad6df0873ffffffffffffffffffffffffffffffffffffffff1660809073ffffffffffffffffffffffffffffffffffffffff1681525034801561005757600080fd5b50336000806101000a81548173ffffffffffffffffffffffffffffffffffffffff021916908373ffffffffffffffffffffffffffffffffffffffff1602179055506080516109166100ba6000396000818161017b01526102b001526109166000f3fe60806040526004361061004e5760003560e01c80633e5beab91461005a5780636e553f6514610097578063b848de35146100c0578063f3fef3a3146100fd578063f8b2cb4f1461011957610055565b3661005557005b600080fd5b34801561006657600080fd5b50610081600480360381019061007c919061054a565b610156565b60405161008e9190610590565b60405180910390f35b3480156100a357600080fd5b506100be60048036038101906100b991906105d7565b610200565b005b3480156100cc57600080fd5b506100e760048036038101906100e291906105d7565b61028c565b6040516100f49190610632565b60405180910390f35b6101176004803603810190610112919061064d565b610339565b005b34801561012557600080fd5b50610140600480360381019061013b919061054a565b610464565b60405161014d9190610590565b60405180910390f35b6000808290508073ffffffffffffffffffffffffffffffffffffffff1663dd62ed3e307f00000000000000000000000000000000000000000000000000000000000000006040518363ffffffff1660e01b81526004016101b792919061069c565b602060405180830381865afa1580156101d4573d6000803e3d6000fd5b505050506040513d601f19601f820116820180604052508101906101f891906106da565b915050919050565b600073e7ec1b0015eb2adeedb1b7f9f1ce82f9dad6df0873ffffffffffffffffffffffffffffffffffffffff1663617ba037838533856040518563ffffffff1660e01b81526004016102559493929190610724565b600060405180830381600087803b15801561026f57600080fd5b505af1158015610283573d6000803e3d6000fd5b50505050505050565b6000808290508073ffffffffffffffffffffffffffffffffffffffff1663095ea7b37f0000000000000000000000000000000000000000000000000000000000000000866040518363ffffffff1660e01b81526004016102ed929190610769565b6020604051808303816000875af115801561030c573d6000803e3d6000fd5b505050506040513d601f19601f8201168201806040525081019061033091906107be565b91505092915050565b60008054906101000a900473ffffffffffffffffffffffffffffffffffffffff1673ffffffffffffffffffffffffffffffffffffffff163373ffffffffffffffffffffffffffffffffffffffff16146103c7576040517f08c379a00000000000000000000000000000000000000000000000000000000081526004016103be9061086e565b60405180910390fd5b600073e7ec1b0015eb2adeedb1b7f9f1ce82f9dad6df0873ffffffffffffffffffffffffffffffffffffffff166369328dec8484336040518463ffffffff1660e01b815260040161041a9392919061088e565b6020604051808303816000875af1158015610439573d6000803e3d6000fd5b505050506040513d601f19601f8201168201806040525081019061045d91906106da565b9050505050565b60008173ffffffffffffffffffffffffffffffffffffffff166370a08231306040518263ffffffff1660e01b815260040161049f91906108c5565b602060405180830381865afa1580156104bc573d6000803e3d6000fd5b505050506040513d601f19601f820116820180604052508101906104e091906106da565b9050919050565b600080fd5b600073ffffffffffffffffffffffffffffffffffffffff82169050919050565b6000610517826104ec565b9050919050565b6105278161050c565b811461053257600080fd5b50565b6000813590506105448161051e565b92915050565b6000602082840312156105605761055f6104e7565b5b600061056e84828501610535565b91505092915050565b6000819050919050565b61058a81610577565b82525050565b60006020820190506105a56000830184610581565b92915050565b6105b481610577565b81146105bf57600080fd5b50565b6000813590506105d1816105ab565b92915050565b600080604083850312156105ee576105ed6104e7565b5b60006105fc858286016105c2565b925050602061060d85828601610535565b9150509250929050565b60008115159050919050565b61062c81610617565b82525050565b60006020820190506106476000830184610623565b92915050565b60008060408385031215610664576106636104e7565b5b600061067285828601610535565b9250506020610683858286016105c2565b9150509250929050565b6106968161050c565b82525050565b60006040820190506106b1600083018561068d565b6106be602083018461068d565b9392505050565b6000815190506106d4816105ab565b92915050565b6000602082840312156106f0576106ef6104e7565b5b60006106fe848285016106c5565b91505092915050565b600061ffff82169050919050565b61071e81610707565b82525050565b6000608082019050610739600083018761068d565b6107466020830186610581565b610753604083018561068d565b6107606060830184610715565b95945050505050565b600060408201905061077e600083018561068d565b61078b6020830184610581565b9392505050565b61079b81610617565b81146107a657600080fd5b50565b6000815190506107b881610792565b92915050565b6000602082840312156107d4576107d36104e7565b5b60006107e2848285016107a9565b91505092915050565b600082825260208201905092915050565b7f4f6e6c792074686520636f6e7472616374206f776e65722063616e2063616c6c60008201527f20746869732066756e6374696f6e000000000000000000000000000000000000602082015250565b6000610858602e836107eb565b9150610863826107fc565b604082019050919050565b600060208201905081810360008301526108878161084b565b9050919050565b60006060820190506108a3600083018661068d565b6108b06020830185610581565b6108bd604083018461068d565b949350505050565b60006020820190506108da600083018461068d565b9291505056fea26469706673582212202314b6a0a657ae4ee74f6803a7e8b8394d604739753903e8aa2decf4dac8b3b764736f6c634300080a0033",
  "linkReferences": {},
  "deployedLinkReferences": {}
}